:100000000C942A000C9434000C9434000C943400AA
:100010000C9434000C9434000C9434000C94340090
:100020000C9434000C9434000C9434000C94340080
:100030000C9434000C9434000C9434000C94340070
:100040000C9434000C9434000C9434000C94340060
:100050000C94340011241FBECFE5D8E0DEBFCDBF25
:100060000E9436000C945D000C9400008FE08ABB67
:100070008FEF8BBB17BA18BA90E020E09BBB86B31A
:10008000883071F49F5F903108F0922F3FE946E885
:1000900081E0315040408040E1F700C00000EECFE9
:1000A000803161F791503FE946E881E031504040AE
:0E00B0008040E1F700C00000E1CFF894FFCFE0
:00000001FF
