:100000000C942A000C9447000C9447000C94470071
:100010000C9447000C9447000C9447000C94470044
:100020000C9447000C9447000C9447000C94470034
:100030000C9447000C9447000C9447000C94470024
:100040000C9447000C9447000C9447000C94470014
:100050000C94470011241FBECFE5D8E0DEBFCDBF12
:1000600012E0A0E6B0E0EAE2F1E002C005900D92F5
:10007000A831B107D9F722E0A8E1B2E001C01D9292
:10008000A831B207E1F70E948C000C9493000C9405
:100090000000EF92FF920F931F93CF93DF9320E026
:1000A00030E048E750E008E010E029C08D918BBBBC
:1000B000819191917C01062E02C0EE0CFF1C0A94E6
:1000C000E2F7022E02C0959587950A94E2F78E29F1
:1000D0009F29809582BB86EA8A95F1F700C0E417D4
:1000E000F50721F71BBA219729F0A0E6B0E0E8E672
:1000F000F0E0DCCF2F5F3F4F2930310531F0C8EC05
:10010000D0E0B801621B730BF0CFDF91CF911F914C
:100110000F91FF90EF9008958FEF81BB8ABB84BB56
:0A0120000E944900FDCFF894FFCFC4
:10012A0001020408102040807F00FF00CC00CC00B0
:10013A00CC00CC00FF007F000000FF00FF00DB00C6
:10014A00DB00DB007E003C000000C300C300C300EC
:10015A00C300E7007E003C0000007E00BD00C30033
:10016A00C300C300FF00FF000000DB00DB00DB0070
:10017A00DB00DB00FF00FF000000D800D800D80039
:10018A00D800D800FF00FF001F00DF00D800DB0006
:10019A00DB00DB00FF00FF000000FF00FF0018008B
:1001AA0018001800FF00FF00C300C300C300FF00CF
:1001BA00FF00C300C300C300C000C000C000FF00AE
:1001CA00FF00C300CF00CF000000C300E7007E009D
:1001DA003C001800FF00FF000300030003000300B7
:1001EA0003000300FF00FF00FF00FF006000700033
:1001FA0070006000FF00FF00FF00FF001C003800D5
:10020A007000E000FF00FF007E00FF00C300C30093
:10021A00C300C300FF007E0000007000F800CC009D
:10022A00CC00CC00FF00FF007E00FF00CF00DF0003
:10023A00DB00C300FF007E007900FB00DF00DE0068
:10024A00DC00D800FF00FF00CE00DF00DB00DB008F
:10025A00DB00DB00FB007300C000C000C000FF0031
:10026A00FF00C000C000C000FE00FF000300030042
:10027A0003000300FF00FE00E000FC001E00030074
:10028A0003001E00FC00E000FE00FF000300FF0068
:10029A00FF000300FF00FE004200E7007E003C0072
:1002AA003C007E00E70042004000E00070003F0092
:1002BA003F007000E0004000C300E300F300FB00D1
:1002CA00DF00CF00C700C300FF00FF00D800DC003A
:0802DA00DE00DF00FB007900EB
:00000001FF
