S01700004763634170706C69636174696F6E332E7372656359
S11300000C942A000C943E000C9468000C943C0060
S11300100C943C000C943C000C943C000C943C006C
S11300200C943C000C943C000C943C000C943C005C
S11300300C943C000C943C000C943C000C943C004C
S11300400C943C000C943C000C943C000C943C003C
S11300500C943C0011241FBECFE5D8E0DEBFCDBF19
S113006020E0A0E6B0E001C01D92A236B207E1F79D
S11300700E9494000C94A0000C9400001F920F9214
S11300800FB60F9211248F939F93809160009091EB
S1130090610001968031910529F09093610080936D
S11300A0600004C0109261001092600080916000B2
S11300B08BBB8FE493EC0197F1F700C000008FEF46
S11300C08ABF9F918F910F900FBE0F901F9018952C
S11300D01F920F920FB60F9211242F938F939F9319
S11300E08091600090916100019728F090936100E5
S11300F08093600006C08FE090E09093610080934D
S11301006000809160008BBB8FE493EC0197F1F762
S113011000C000008FEF8ABF9F918F912F910F90A5
S11301200FBE0F901F9018958FE08ABB80916000DE
S11301308BBB8BB7806C8BBF8AE085BF7894FFCF75
S1070140F894FFCF5D
S9030000FC
